:1000000080313628FF3FFF3F4E010D1808200900C0
:100010000D1020202520F20A7208FC39031907323E
:10002000F201460170089500710894000332460100
:100030009501940146017008990071089800080024
:100040002A30F0008030F100080041011C08F30064
:10005000D5307302031C0232D530F30003010310C4
:10006000F30C890CF1077308F03D080046205F206F
:100070007E010330A3000430A40040019411141247
:100080007E01CE114E120030013EFE334601960134
:100090009A014501FF308D004601803095009401A2
:1000A000990098014E010D13450101309000003078
:1000B0008F00F0308E00460196179A170800400115
:1000C00014157E014E15410149309D0060309E009F
:1000D00004309F004E0117140B178B170800FF3FC9
:020000040001F9
:0800000065246C36F23764360A
:0A000E00CD2FE72FFF3FFF3FFF3F1C
:00000001FF
